:020000040000FA
:100000000C9462000C948A000C948A000C948A0070
:100010000C948A000C948A000C948A000C948A0038
:100020000C948A000C948A000C948A000C948A0028
:100030000C948A000C948A000C948A000C948A0018
:100040000C94BE010C948A000C942E020C940802AD
:100050000C948A000C948A000C948A000C948A00F8
:100060000C948A000C948A00000000080002010031
:100070000003040700000000000000000000000072
:10008000250028002B0000000000240027002A0083
:1000900000000000230026002900040404040404D6
:1000A0000404020202020202030303030303010227
:1000B00004081020408001020408102001020408F6
:1000C0001020600211241FBECFEFD8E0DEBFCDBFED
:1000D00011E0A0E0B1E0E2E6FFE002C005900D9281
:1000E000A631B107D9F721E0A6E1B1E001C01D9228
:1000F000AA3DB207E1F710E0C2E6D0E004C02197C4
:10010000FE010E94A907C136D107C9F70E949B03CF
:100110000C94AF070C9400003FB7F894809117013E
:1001200090911801A0911901B0911A0126B5A89BD0
:1001300005C02F3F19F00196A11DB11D3FBFBA2F79
:10014000A92F982F8827BC01CD01620F711D811D39
:10015000911D42E0660F771F881F991F4A95D1F7BE
:100160000895AF92BF92CF92DF92EF92FF920F93DA
:100170001F93CF93DF936C017B018B01040F151F3D
:10018000EB015E01AE18BF08C017D10759F06991A5
:10019000D601ED91FC910190F081E02DC601099509
:1001A000892B79F7C501DF91CF911F910F91FF90B6
:1001B000EF90DF90CF90BF90AF900895FC01538DEA
:1001C000448D252F30E0842F90E0821B930B541731
:1001D00010F0CF96089501970895FC01918D828DBE
:1001E000981761F0A28DAE0FBF2FB11D5D968C9157
:1001F000928D9F5F9F73928F90E008958FEF9FEF96
:100200000895FC01918D828D981731F0828DE80F51
:10021000F11D858D90E008958FEF9FEF0895FC010B
:10022000918D228D892F90E0805C9F4F821B9109D8
:100230008F73992708958BE191E00E940F0121E0CF
:10024000892B09F420E0822F089580E090E0892B2B
:1002500029F00E941B0181110C9400000895FC01FB
:10026000A48DA80FB92FB11DA35ABF4F2C91848D17
:1002700090E001968F739927848FA689B7892C9374
:10028000A089B1898C91837080648C93938D848DC7
:10029000981306C00288F389E02D80818F7D8083CA
:1002A0000895EF92FF920F931F93CF93DF93EC018A
:1002B00081E0888F9B8D8C8D98131AC0E889F9890D
:1002C000808185FF15C09FB7F894EE89FF89608310
:1002D000E889F98980818370806480839FBF81E091
:1002E00090E0DF91CF911F910F91FF90EF900895D3
:1002F000F62E0B8D10E00F5F1F4F0F731127E02EAE
:100300008C8D8E110CC00FB607FCFACFE889F989E5
:10031000808185FFF5CFCE010E942F01F1CFEB8DBB
:10032000EC0FFD2FF11DE35AFF4FF0829FB7F894B9
:100330000B8FEA89FB8980818062CFCFCF93DF93D7
:10034000EC01888D8823B9F0AA89BB89E889F989ED
:100350008C9185FD03C0808186FD0DC00FB607FC22
:10036000F7CF8C9185FFF2CF808185FFEDCFCE0155
:100370000E942F01E9CFDF91CF9108951F920F9234
:100380000FB60F9211242F933F938F939F93AF93A8
:10039000BF938091B8019091B901A091BA01B09139
:1003A000BB013091160123E0230F2D3758F501963C
:1003B000A11DB11D209316018093B8019093B9013E
:1003C000A093BA01B093BB018091170190911801DD
:1003D000A0911901B0911A010196A11DB11D809340
:1003E000170190931801A0931901B0931A01BF91BE
:1003F000AF919F918F913F912F910F900FBE0F90D2
:100400001F90189526E8230F0296A11DB11DD2CF8B
:100410001F920F920FB60F9211242F933F934F9379
:100420005F936F937F938F939F93AF93BF93EF935C
:10043000FF938BE191E00E942F01FF91EF91BF911B
:10044000AF919F918F917F916F915F914F913F916C
:100450002F910F900FBE0F901F9018951F920F9223
:100460000FB60F9211242F938F939F93EF93FF93C7
:10047000E0912B01F0912C018081E0913101F0910C
:10048000320182FD1BC09081809134018F5F8F7398
:1004900020913501821741F0E0913401F0E0E55EF2
:1004A000FE4F958F80933401FF91EF919F918F9133
:1004B0002F910F900FBE0F901F9018958081F4CF51
:1004C000EF92FF921F93CF93DF9310921E01109231
:1004D0001D0188EE93E0A0E0B0E080931F019093AF
:1004E0002001A0932101B093220184E091E0909338
:1004F0001C0180931B0185EC90E090932801809370
:10050000270184EC90E090932A018093290180ECEC
:1005100090E090932C0180932B0181EC90E09093DC
:100520002E0180932D0182EC90E090933001809316
:100530002F0186EC90E0909332018093310110926C
:10054000340110923501109236011092370181E08A
:1005500090E09093BD018093BC0186E391E090937D
:10056000C3018093C20180EE95E7A9E0B0E08093DB
:10057000C4019093C501A093C601B093C70180E266
:100580009EE4A0E0B0E08093C8019093C901A093DD
:10059000CA01B093CB01A2EBB0E0FD0144918EE91A
:1005A00090E0FC012491222399F030E0220F331FC8
:1005B000F901EA57FF4FC591D491F901E458FF4F73
:1005C000259134912FB7F8943881432B48832FBF5E
:1005D00060EB70E0FB0114912CE930E0F9014491EB
:1005E0004423C9F050E0440F551FFA01EA57FF4F6A
:1005F000C591D491FA01E458FF4FE590F490EFB71C
:10060000F8945881412F409554235883E70158812D
:1006100045234883EFBFECE6F0E04491FD0154919F
:10062000FC01C491CC23E1F0442359F0433009F498
:100630006BC008F05EC0413009F46CC0423009F470
:100640006DC0EC2FF0E0EE0FFF1FE458FF4FC59197
:10065000D4914FB7F894E88150955E2358834FBFEB
:10066000FD01A491A093D401FC018491E82FF0E056
:10067000EE0FFF1FE057FF4F859194919093D601A5
:100680008093D501FB0164916093D701F901249116
:10069000E22FF0E0EE0FFF1FE057FF4F859194919E
:1006A0009093D9018093D8018FEF9FEFAFEFBFE018
:1006B0008093BE019093BF01A093C001B093C1018C
:1006C0002FB7F8948091B8019091B901A091BA0127
:1006D000B091BB012FBF8093CC019093CD01A0932B
:1006E000CE01B093CF01DF91CF911F91FF90EF909A
:1006F00008954730B1F04830D1F0443009F0A1CF2F
:10070000409180004F7D03C0409180004F7740931F
:10071000800097CF44B54F7744BD93CF44B54F7D0C
:10072000FBCF4091B0004F774093B0008ACF40910B
:10073000B0004F7DF9CFCF93DF93CDB7DEB7A19750
:100740000FB6F894DEBF0FBECDBF789484B582603B
:1007500084BD84B5816084BD85B5826085BD85B565
:10076000816085BD80916E00816080936E001092E3
:10077000810080918100826080938100809181005E
:1007800081608093810080918000816080938000EF
:100790008091B10084608093B1008091B00081604D
:1007A0008093B00080917A00846080937A00809179
:1007B0007A00826080937A0080917A0081608093D1
:1007C0007A0080917A00806880937A001092C1004C
:1007D000E0912B01F0912C0182E08083E0912701D0
:1007E000F09128011082E0912901F0912A018FEC0B
:1007F000808310923301E0912F01F091300186E067
:100800008083E0912D01F0912E01808180618083B1
:10081000E0912D01F0912E01808188608083E0912C
:100820002D01F0912E01808180688083E0912D015F
:10083000F0912E0180818F7D80833AE0832E912C70
:10084000A12CB12C40E0242E40E0342E1092D00197
:100850001092D1011092D2011092D3018091BC016B
:100860009091BD0197FD1DC22EE1F894E091D50154
:10087000F091D60192818091D40180958923828361
:10088000E091D801F091D90191818091D7018095B3
:1008900089238183E091D801F091D90192818091DF
:1008A000D701809589238283E091D801F091D90105
:1008B00081819091D701892B8183E091D801F091BA
:1008C000D90192818091D70180958923828383E227
:1008D00090E00197F1F7E091D801F091D901918171
:1008E0008091D701809589238183E091D801F0918F
:1008F000D90192818091D701809589238283E091EB
:10090000D501F091D60182819091D401892B828307
:100910007894E091D801F091D9013091D7014091BC
:10092000C4015091C5016091C6017091C701108149
:100930008091D0019091D101A091D201B091D301C9
:10094000132389F484179507A607B70760F4019667
:10095000A11DB11D8093D0019093D101A093D2012C
:10096000B093D301E4CF481759076A077B0708F013
:1009700061C02EEFC22EDD24DA94ED2CFD2C6DE249
:100980008BE191E00E94510122273327A9012C1904
:100990003D094E095F0919A28E010F5D1F4FCA0163
:1009A000B901A50194010E948707605DD8016E938B
:1009B0008D01211531054105510589F7FD01AB2B4D
:1009C00009F04CC142E050E062E171E08BE191E05E
:1009D0000E94B1000E948C002B013C018AE0C82ECD
:1009E000D12CE12CF12C0E948C0064197509860928
:1009F0009709683E734081059105A8F3F1E0CF1A8D
:100A0000D108E108F10828EE420E23E0521E611CD5
:100A1000711CC114D104E104F10429F7211431043B
:100A200009F414CF0E941B01882309F40FCF0E9400
:100A300000000CCFF894E091D801F091D9018281A7
:100A40009091D701892B8283E091D801F091D9014F
:100A500081819091D701892B8183E091D801F09118
:100A6000D90182819091D701892B8283E091D801AD
:100A7000F091D90191818091D7018095892381835B
:100A8000E091D801F091D90192818091D7018095B0
:100A900089238283E091D501F091D60192818091E2
:100AA000D4018095892382837894E091D801F091D4
:100AB000D9013091D7014091C4015091C501609195
:100AC000C6017091C70110818091D0019091D10130
:100AD000A091D201B091D301132309F0CCC08417A7
:100AE0009507A607B70708F044CF215009F0BDCEFF
:100AF0002FB7F8948091B8019091B901A091BA01F3
:100B0000B091BB012FBF4091CC015091CD016091BC
:100B1000CE017091CF01841B950BA60BB70B4091B2
:100B2000C8015091C9016091CA017091CB01481769
:100B300059076A077B0708F04CC0C090D001D090DD
:100B4000D101E090D201F090D3016091BE0170918B
:100B5000BF018091C0019091C101C616D706E80679
:100B6000F90609F49AC0C61AD70AE80AF90A0E94D7
:100B70008C062DEC3CEC4CEC5DE30E94F2060E94EE
:100B80005606072E000C880B990BC616D706E806EA
:100B9000F906F8F48FEF9FEFAFEFBFE08093BE014F
:100BA0009093BF01A093C001B093C1012FB7F894F7
:100BB0008091B8019091B901A091BA01B091BB01A7
:100BC0002FBF8093CC019093CD01A093CE01B09321
:100BD000CF014091D0015091D1016091D20170912B
:100BE000D3018091BE019091BF01A091C001B0914D
:100BF000C101481759076A077B0740F44093BE01BB
:100C00005093BF016093C0017093C1018091BE01F8
:100C10009091BF01A091C001B091C1019A01AB01B7
:100C2000281B390B4A0B5B0B69017A0157FDA7CED4
:100C300019A28E010F5D1F4FCA01B901A5019401D0
:100C40000E948707605DF80162938F0121153105CD
:100C50004105510589F7309709F4B4CE0190002081
:100C6000E9F73197AF01401B510BB8018BE191E0DF
:100C70000E94B100A7CE84179507A607B70708F012
:100C800078CE0196A11DB11D8093D0019093D10122
:100C9000A093D201B093D30116CFC12CD12C7601F1
:100CA00066CFCC24CA94DC2C760169CE0E945D0606
:100CB0006894B1110C94EC0608950E94D10688F056
:100CC0009F5798F0B92F9927B751B0F0E1F0660F10
:100CD000771F881F991F1AF0BA95C9F714C0B13051
:100CE00091F00E94EB06B1E008950C94EB06672F9B
:100CF000782F8827B85F39F0B93FCCF38695779580
:100D00006795B395D9F73EF4909580957095619568
:100D10007F4F8F4F9F4F0895E89409C097FB3EF493
:100D200090958095709561957F4F8F4F9F4F992338
:100D3000A9F0F92F96E9BB279395F69587957795B6
:100D40006795B795F111F8CFFAF4BB0F11F460FF76
:100D50001BC06F5F7F4F8F4F9F4F16C0882311F0CE
:100D600096E911C0772321F09EE8872F762F05C0E2
:100D7000662371F096E8862F70E060E02AF09A957D
:100D8000660F771F881FDAF7880F9695879597F972
:100D9000089557FD9058440F551F59F05F3F71F06B
:100DA0004795880F97FB991F61F09F3F79F08795D2
:100DB0000895121613061406551FF2CF4695F1DF5B
:100DC00008C0161617061806991FF1CF86957105EB
:100DD000610508940895E894BB2766277727CB011F
:100DE00097F908950E9405070C9476070E946807FA
:100DF00038F00E946F0720F0952311F00C945F07E4
:100E00000C94650711240C94EC060E94C90670F33B
:100E1000959FC1F3950F50E0551F629FF001729F9F
:100E2000BB27F00DB11D639FAA27F00DB11DAA1FAE
:100E3000649F6627B00DA11D661F829F2227B00DFB
:100E4000A11D621F739FB00DA11D621F839FA00D86
:100E5000611D221F749F3327A00D611D231F849FD6
:100E6000600D211D822F762F6A2F11249F5750402D
:100E70009AF0F1F088234AF0EE0FFF1FBB1F661FA8
:100E8000771F881F91505040A9F79E3F510580F071
:100E90000C945F070C94EC065F3FE4F3983ED4F3A8
:100EA000869577956795B795F795E7959F5FC1F715
:100EB000FE2B880F911D9695879597F9089597F9C0
:100EC0009F6780E870E060E008959FEF80EC0895F0
:100ED00000240A9416161706180609060895002419
:100EE0000A9412161306140605060895092E039493
:100EF000000C11F4882352F0BB0F40F4BF2B11F407
:100F000060FF04C06F5F7F4F8F4F9F4F0895A1E236
:100F10001A2EAA1BBB1BFD010DC0AA1FBB1FEE1F73
:100F2000FF1FA217B307E407F50720F0A21BB30BBE
:100F3000E40BF50B661F771F881F991F1A9469F73A
:100F400060957095809590959B01AC01BD01CF0196
:100F50000895EE0FFF1F0590F491E02D0994F89489
:100F6000FFCF000000005101B100DE009E010F0123
:080F7000ED0001010D0A000073
:107E0000112484B714BE81FFF0D085E080938100F7
:107E100082E08093C00088E18093C10086E0809377
:107E2000C20080E18093C4008EE0C9D0259A86E02C
:107E300020E33CEF91E0309385002093840096BBD3
:107E4000B09BFECF1D9AA8958150A9F7CC24DD24C4
:107E500088248394B5E0AB2EA1E19A2EF3E0BF2EE7
:107E6000A2D0813461F49FD0082FAFD0023811F036
:107E7000013811F484E001C083E08DD089C08234E0
:107E800011F484E103C0853419F485E0A6D080C0E4
:107E9000853579F488D0E82EFF2485D0082F10E0AE
:107EA000102F00270E291F29000F111F8ED06801E7
:107EB0006FC0863521F484E090D080E0DECF843638
:107EC00009F040C070D06FD0082F6DD080E0C81688
:107ED00080E7D80618F4F601B7BEE895C0E0D1E017
:107EE00062D089930C17E1F7F0E0CF16F0E7DF06D8
:107EF00018F0F601B7BEE89568D007B600FCFDCFD4
:107F0000A601A0E0B1E02C9130E011968C91119780
:107F100090E0982F8827822B932B1296FA010C0160
:107F200087BEE89511244E5F5F4FF1E0A038BF0790
:107F300051F7F601A7BEE89507B600FCFDCF97BE46
:107F4000E89526C08437B1F42ED02DD0F82E2BD052
:107F50003CD0F601EF2C8F010F5F1F4F84911BD097
:107F6000EA94F801C1F70894C11CD11CFA94CF0C13
:107F7000D11C0EC0853739F428D08EE10CD085E9AC
:107F80000AD08FE07ACF813511F488E018D01DD067
:107F900080E101D065CF982F8091C00085FFFCCF94
:107FA0009093C60008958091C00087FFFCCF809118
:107FB000C00084FD01C0A8958091C6000895E0E648
:107FC000F0E098E1908380830895EDDF803219F02E
:107FD00088E0F5DFFFCF84E1DECF1F93182FE3DFCA
:107FE0001150E9F7F2DF1F91089580E0E8DFEE27F6
:047FF000FF270994CA
:027FFE00040479
:00000001FF
